:100000000C944D010C941E0B0C94F30A0C94C80A2A
:100010000C949D0A0C94720A0C94470A0C941C0AC6
:100020000C94F1090C947E010C947E010C947E01D9
:100030000C947E010C947E010C947E010C947E0144
:100040000C947E010C947E010C947E010C947E0134
:100050000C947E010C947E010C947E010C94A709F3
:100060000C947E010C9471090C9447090C947E0148
:100070000C947E010C947E010C947E010C947E0104
:100080000C947E010C947E010C947E010C947E01F4
:100090000C947E010C947E010C947E010C94490B0F
:1000A0000C947E010C947E010C947E010C947E01D4
:1000B0000C947E010C947E010C947E010C947E01C4
:1000C0000C947E010C947E010C947E010C947E01B4
:1000D0000C947E010C947E010C947E010C947E01A4
:1000E0000C947E010C942B030C9497020C949605AF
:1000F0000C9410030C9418030C9447030C943406CE
:100100000C94F0010C94FE030C9415060C94B301AE
:100110000C94B2010C9414030C9412020C94460338
:100120000C940C030C947C050C9433030C94410345
:100130000C9439030C944B030C941B030C94040291
:100140000C943D030C9412060C946D0C0C9421033A
:100150000C948F050C94C3050C942F030C94B401DC
:100160000C946C050C9406030C94E1010C9425038B
:100170000C946D050C944A02000020002300260018
:1001800029002C002F0032000001000003010601AD
:10019000090100000A0B02090C0D0E0807030401F7
:1001A000000000000000000000000000000000004F
:1001B000000000000000000000000000000012111C
:1001C000100000000000000000000000000000001F
:1001D00000000000000000000000220025002800B0
:1001E0002B002E003100340002010000050108013F
:1001F0000B0100002100240027002A002D00300000
:10020000330001010000040107010A01050505058D
:10021000070508080808020202020A0A080804047E
:1002200004040101010101010101030303030303AC
:100230000303040707070C0C0C0C0C0C0C0C02023B
:10024000020206060606060606060B0B0B0B0B0B38
:100250000B0B0102102020080810204010204080C5
:10026000020102010804020101020408102040807A
:100270008040201008040201800402018040201008
:100280000804020108040201010204081020408051
:1002900001020408102040806D0C11241FBECFEF16
:1002A000D1E2DEBFCDBF00E00CBF13E0A0E0B2E0C2
:1002B000E0E9F4E300E00BBF02C007900D92A83123
:1002C000B107D9F726E0A8E1B3E001C01D92A3333E
:1002D000B207E1F711E0CDE4D1E000E006C02197DC
:1002E0000109802FFE010E945F17CC34D10780E006
:1002F0000807A9F70E949A0D0C94461A0C94000066
:1003000091E09093C0048093E2041092C104109293
:10031000E3040895CF93DF9390E0FC01EE5AFD4F84
:100320002491845F9D4FFC0184918823C1F090E06B
:10033000880F991FFC01EE50FE4FC591D491FC012E
:10034000E852FE4FA591B4919FB7F8948881E22FAF
:10035000E0958E2388838C91E823EC939FBFDF91F7
:10036000CF91089508950895AF92BF92CF92DF92F2
:10037000EF92FF920F931F93CF93DF936C017B015A
:100380008B01040F151FEB015E01AE18BF08C017EB
:10039000D10759F06991D601ED91FC910190F0815E
:1003A000E02DC6011995892B79F7C501DF91CF9111
:1003B0001F910F91FF90EF90DF90CF90BF90AF9083
:1003C0000895FC01538D448D252F30E0842F90E05B
:1003D000821B930B541710F0CF9608950197089540
:1003E000FC01918D828D981761F0A28DAE0FBF2F09
:1003F000B11D5D968C91928D9F5F9F73928F90E05F
:1004000008958FEF9FEF0895FC01918D828D9817CD
:1004100031F0828DE80FF11D858D90E008958FEF0A
:100420009FEF0895FC01918D228D892F90E0805CD3
:100430009F4F821B91098F739927089584EE94E052
:100440000E94120221E0892B09F420E0822F0895F6
:10045000FC01A48DA80FB92FB11DA35ABF4F2C9139
:10046000848D90E001968F739927848FA689B78930
:100470002C93A089B1898C91837080648C93938D27
:10048000848D981306C00288F389E02D80818F7DCA
:1004900080830895EF92FF920F931F93CF93DF9382
:1004A000EC0181E0888F9B8D8C8D98131AC0E889B0
:1004B000F989808185FF15C09FB7F894EE89FF897F
:1004C0006083E889F98980818370806480839FBF1D
:1004D00081E090E0DF91CF911F910F91FF90EF901D
:1004E0000895F62E0B8D10E00F5F1F4F0F7311272D
:1004F000E02E8C8D8E110CC00FB607FCFACFE88968
:10050000F989808185FFF5CFCE010E942802F1CFC5
:10051000EB8DEC0FFD2FF11DE35AFF4FF0829FB7DB
:10052000F8940B8FEA89FB8980818062CFCFCF93CB
:10053000DF93EC01888D8823B9F0AA89BB89E8890B
:10054000F9898C9185FD03C0808186FD0DC00FB6B1
:1005500007FCF7CF8C9185FFF2CF808185FFEDCF2F
:10056000CE010E942802E9CFDF91CF91089580E06B
:1005700090E0892B29F00E941E0281110E94000048
:1005800080E090E0892B49F080E090E0892B29F011
:100590000E94000081110E94000080E090E0892B01
:1005A00049F080E090E0892B29F00E940000811141
:1005B0000E94000080E090E0892B49F080E090E00C
:1005C000892B29F00E94000081110C9400000895ED
:1005D0008150823108F05AC0E82FF0E08827EC50B3
:1005E000FD4F8F4F0C945F171403180306030C0381
:1005F000100346031B03210325032B032F0333039F
:1006000039033D034603410347034B0380918000B8
:100610008F77809380000895809180008F7DF9CF3F
:1006200080918000877FF5CF84B58F7784BD089552
:1006300084B58F7DFBCF8091B0008F778093B00021
:1006400008958091B0008F7DF9CF809190008F77D1
:10065000809390000895809190008F7DF9CF8091D4
:100660009000877FF5CF8091A0008F778093A000C6
:1006700008958091A0008F7DF9CF8091A000877FA1
:10068000F5CF809120018F7780932001089580918C
:1006900020018F7DF9CF80912001877FF5CFCF9307
:1006A000DF93282F30E0F901EE56FE4F8491F901D7
:1006B000EE5AFD4FD491F901E45FFD4FC491CC2374
:1006C000A1F081110E94E802EC2FF0E0EE0FFF1F75
:1006D000E858FE4FA591B491EC91ED2381E090E0B4
:1006E00009F480E0DF91CF91089580E090E0FACFA7
:1006F0001F93CF93DF93282F30E0F901EE56FE4F82
:100700008491F901EE5AFD4FD491F901E45FFD4F58
:10071000C491CC23A9F0162F81110E94E802EC2F7E
:10072000F0E0EE0FFF1FE852FE4FA591B4918FB796
:10073000F894EC91111108C0D095DE23DC938FBFA3
:10074000DF91CF911F910895DE2BF8CF3FB7F8943A
:100750008091810390918203A0918303B0918403DF
:1007600026B5A89B05C02F3F19F00196A11DB11D0C
:100770003FBFBA2FA92F982F8827BC01CD01620F48
:10078000711D811D911D42E0660F771F881F991F03
:100790004A95D1F708958F929F92AF92BF92CF92D0
:1007A000DF92EF92FF926B017C010E94A6034B0146
:1007B0005C01C114D104E104F104B9F00E94A60364
:1007C000681979098A099B09683E7340810591057A
:1007D00080F321E0C21AD108E108F10888EE880E02
:1007E00083E0981EA11CB11CE4CFFF90EF90DF9036
:1007F000CF90BF90AF909F908F90089508952091D3
:100800005903260F3327331F21323105ECF4209191
:10081000BA04FC0190E080E0243069F082E00895A1
:10082000A09159032191AC01475C5C4FA40FB52FF7
:10083000B11D2C930196861798F380915903680F88
:100840006093590380E0089581E008951092BA04FE
:1008500081E08093B9041092940461E084E10E94E5
:10086000780361E085E10E947803E9EBF0E08081A4
:100870008E7F808380818D7F808388E48093B80021
:1008800085E48093BC000895109293041092920422
:100890001092C1041092E3040E94260482EB91E0BE
:1008A000909391048093900483EB91E090938F0454
:1008B00080938E040895CF93DF9391E09093380353
:1008C0008823B9F0C091B800D091BA008091BC00E3
:1008D0008A7B8093BC0060E084E10E94780360E042
:1008E00085E10E9478030E942604D093BA00C09349
:1008F000B800DF91CF9108958F929F92AF92BF92EF
:10090000CF92DF92EF92FF920F931F93CF93DF93DB
:10091000D091E304D13208F0D7C0182FC091E2047F
:100920000E94A6036B017C018091BA0481116BC007
:1009300082E08093BA041093B9048FEF8093B804D7
:100940001092B704D093B604A2ECB4E0E6E9F4E068
:1009500080E0D81391C01092950480919504CC0F3B
:10096000C82BC093950480919404813009F088C00D
:10097000109294040E94A6036B017C01809195045F
:100980008093BB008091BC049091BD04A091BE04F3
:10099000B091BF04892B8A2B8B2BA1F00E94A60358
:1009A0000091BC041091BD042091BE043091BF049D
:1009B0006C197D098E099F09061717072807390743
:1009C00008F442C08091BC0083FDD8CF85EC8093B1
:1009D000BC000E94A6036B017C018091BA048230A6
:1009E00009F450C08091B8048F3F09F46FC0809122
:1009F000B804803209F46CC08091B804803309F4E3
:100A000069C084E026C08091BC049091BD04A0918F
:100A1000BE04B091BF04892B8A2B8B2B09F484CFA1
:100A20000E94A6038090BC049090BD04A090BE04D8
:100A3000B090BF046C197D098E099F098616970630
:100A4000A806B90608F070CF8091BB040E945B0431
:100A500085E01092C1041092E3041092C004DF916B
:100A6000CF911F910F91FF90EF90DF90CF90BF90AB
:100A7000AF909F908F9008959D9191938F5F69CFD4
:100A800085EEA5CF8091BC049091BD04A091BE04D9
:100A9000B091BF04892B8A2B8B2B09F49ECF0E9427
:100AA000A6030091BC041091BD042091BE043091B6
:100AB000BF046C197D098E099F09061717072807BF
:100AC000390708F08ACFC0CF81E0C3CF80E0C1CF23
:100AD00082E0BFCF83E0BDCF0895E0919304809181
:100AE0009204E81730F4F0E0E85EFC4F808190E07B
:100AF00008958FEF9FEF0895909193048091920451
:100B00002FEF3FEF981748F4E92FF0E0E85EFC4F35
:100B1000208130E09F5F90939304C90108958091F4
:100B2000920490919304891B990B0895CF92DF92C0
:100B3000EF92FF920F931F93CF93DF937C01CB0132
:100B40008A012091C004222389F0EB016B01C40EBD
:100B5000D51ECC15DD0569F06991D701ED91FC91A9
:100B60000190F081E02DC7011995F3CF642F0E9409
:100B7000FF03C801DF91CF911F910F91FF90EF907C
:100B8000DF90CF900895CF93DF931F92CDB7DEB75C
:100B900069832091C0042223F9F02091E3042032DC
:100BA00058F021E030E0FC013383228390E080E0C4
:100BB0000F90DF91CF9108958091C104E82FF0E06C
:100BC000EE53FB4F998190838F5F8093C104809394
:100BD000E30481E090E0ECCF61E0CE0101960E9459
:100BE000FF03F7CF60E081E895E00C94C30581E056
:100BF0000C947C04CF93DF93D82FC62F8091CA0525
:100C00000E9480016D2F81E895E00E94C3056C2F42
:100C100081E895E00E94C30581E895E0DF91CF91DE
:100C20000C94F70590E080E00895CF93DF9382E085
:100C30000E944F03C0918804D0918904019739F430
:100C400084E00E944F03892B39F4219606C084E08A
:100C50000E944F03892BC9F72197D0938904C09331
:100C60008804DF91CF910895CF93DF9383E00E94B2
:100C70004F03C0918A04D0918B04019739F486E127
:100C80000E944F03892B39F4219606C086E10E9409
:100C90004F03892BC9F72197D0938B04C0938A0403
:100CA000DF91CF9108950F931F93CF93DF93AC0102
:100CB000A0918C04B0918D04FC01EA0FFB1FED01A3
:100CC0002FEF3FEF8991382788E0B901660F771F32
:100CD00037FF3DC09B0191E2292790E139278150E0
:100CE000A1F7EC17FD0771F730832183609186032C
:100CF00070918703FB0131968B0191E09D018C91EE
:100D0000882319F080839F5F31961196E9018881CD
:100D1000882311F09F3F29F4E80198838F013196D1
:100D200091E0415051094E3FDFEF5D0739F7D8019F
:100D30009C931082AF01461B570B4F5F5F4F84EEB1
:100D400094E0DF91CF911F910F910C94B4019B011E
:100D5000C6CFFC0101900020E9F73197AF01481B95
:100D6000590BBC0184EE94E00C94B40185ED8093A2
:100D7000BC008091BC049091BD04A091BE04B091D0
:100D8000BF040796A11DB11D23E0B695A7959795C1
:100D900087952A95D1F72091BC0024FD03C01092BD
:100DA000BA0408954091BC045091BD046091BE0402
:100DB0007091BF04452B462B472B69F30097A10583
:100DC000B10541F025E32A95F1F700000197A1094B
:100DD000B109E1CF8091BB040C945B04CF92DF9208
:100DE000EF92FF920F931F93CF93DF93D62FC42FD1
:100DF0000E94A6036B017C018091BA04811165C039
:100E000081E08093BA048093B9049FEF9093B80473
:100E10001092B7049C0F9093B60480939504809130
:100E20009504DD0FD82BD0939504809194048130E4
:100E300009F07FC0109294040E94A6036B017C010C
:100E4000809195048093BB008091BC049091BD0477
:100E5000A091BE04B091BF04892B8A2B8B2BA1F0EB
:100E60000E94A6030091BC041091BD042091BE0411
:100E70003091BF046C197D098E099F090617170769
:100E80002807390708F442C08091BC0083FDD8CF01
:100E900085EC8093BC000E94A6036B017C018091CD
:100EA000BA04813009F447C08091B7048C1710F45C
:100EB000C091B704A6E9B4E0E8E1F3E080E08C1764
:100EC00051F19D9191938F5FFACF8091BC049091E5
:100ED000BD04A091BE04B091BF04892B8A2B8B2B3B
:100EE00009F48ACF0E94A6030091BC041091BD04AE
:100EF0002091BE043091BF046C197D098E099F09B1
:100F0000061717072807390708F076CF8091BB042A
:100F10000E945B04C0E010929304C09392048C2F53
:100F2000DF91CF911F910F91FF90EF90DF90CF90C5
:100F3000089585EEAECF8091BC049091BD04A09140
:100F4000BE04B091BF04892B8A2B8B2B09F4A7CF49
:100F50000E94A6030091BC041091BD042091BE0420
:100F60003091BF046C197D098E099F090617170778
:100F70002807390708F093CFC9CFCF92DF92EF92BD
:100F8000FF920F931F93CF93DF93CDB7DEB7A19757
:100F90000FB6F894DEBF0FBECDBFFC012081273015
:100FA00059F18C0184E392E00E94A906F8012081A6
:100FB00030E050E040E019A28E010F5D1F4F8AE043
:100FC000C82ED12CE12CF12CCA01B901A701960140
:100FD0000E941E17605DF80162938F012115310593
:100FE0004105510589F7309719F0CF010E94A906F4
:100FF00086E492E00E94A906A1960FB6F894DEBF9F
:101000000FBECDBFDF91CF911F910F91FF90EF9059
:10101000DF90CF900895CF93DF93C82FD62F0E94F3
:1010200080018091300690913106DC01ED91FC91B8
:101030000190F081E02D6D2F199580E00E947C04D5
:1010400080933206882321F082E396E00E94BD0758
:1010500041E06C2F80913006909131060E94EE069F
:101060008091300690913106DC01ED91FC91008475
:10107000F185E02D1995892B71F0809130069091C2
:101080003106DC01ED91FC910284F385E02D199588
:10109000DF91CF91089580E0FBCFFF920F931F93D4
:1010A000CF93DF93C82FF62ED42F89010E948001A1
:1010B0008091300690913106DC01ED91FC91019018
:1010C000F081E02D6F2D199580E00E947C048093C3
:1010D0003206882321F082E396E00E94BD074D2F5F
:1010E0006C2F80913006909131060E94EE06C0E090
:1010F0008091300690913106DC01ED91FC910084E5
:10110000F185E02D1995892B89F080913006909119
:101110003106DC01ED91FC910284F385E02D1995F7
:10112000F801EC0FF11D8083CF5FE2CFDF91CF910B
:101130001F910F91FF900895CF93DF93D62FC42F67
:101140000E9480018091300690913106DC01ED9182
:10115000FC910190F081E02D6D2F19958091300662
:1011600090913106DC01ED91FC910190F081E02D30
:101170006C2F199580913006909131060E94F705E9
:1011800080933206882331F082E396E0DF91CF919D
:101190000C94BD07DF91CF910895CF93DF93C0EDFD
:1011A000D5E040E06BE688810E949C0864E670E030
:1011B00080E090E00E94CB0341E06BE688810E94D2
:1011C0009C0868EC70E080E090E00E94CB0343E074
:1011D0006AE188810E949C0844E069E188810E945C
:1011E0009C086BE188810E940B08847E482F48612F
:1011F0006BE188810E949C086CE188810E940B0849
:10120000482F48616CE188810E949C086DE18881CB
:101210000E940B08807F482F43606DE188810E9407
:101220009C0842E267E388810E949C0841E068E3F1
:1012300088810E949C0864E670E080E090E0DF9185
:10124000CF910C94CB03CF93DF93CDB7DEB78E81D4
:10125000909185039817C0F0E0918C04F0918D0473
:1012600091E0908381839E01275F3F4F4F81588596
:101270006AEF70E0CF0102960E94671718161906F0
:101280001CF402960E945306DF91CF9108951F929D
:101290000F920FB60F9211240BB60F922F933F931C
:1012A0004F935F936F937F938F939F93AF93BF936E
:1012B000EF93FF9384EE94E00E942802FF91EF9158
:1012C000BF91AF919F918F917F916F915F914F915E
:1012D0003F912F910F900BBE0F900FBE0F901F905C
:1012E00018951F920F920FB60F9211240BB60F9202
:1012F0002F938F939F93EF93FF93E091F404F091DA
:10130000F5048081E091FA04F091FB0482FD1DC098
:1013100090818091FD048F5F8F732091FE0482176E
:1013200041F0E091FD04F0E0EC51FB4F958F80938C
:10133000FD04FF91EF919F918F912F910F900BBE24
:101340000F900FBE0F901F9018958081F2CF1F92C3
:101350000F920FB60F9211242F933F938F939F9369
:10136000AF93BF9380917D0390917E03A0917F0303
:10137000B091800330917C0323E0230F2D3758F583
:101380000196A11DB11D20937C0380937D03909352
:101390007E03A0937F03B09380038091810390919B
:1013A0008203A0918303B09184030196A11DB11D16
:1013B0008093810390938203A0938303B09384036B
:1013C000BF91AF919F918F913F912F910F900FBE41
:1013D0000F901F90189526E8230F0296A11DB11DAE
:1013E000D2CF1F920F920FB60F9211240BB60F920D
:1013F0002F933F934F935F936F937F938F939F931D
:10140000AF93BF93EF93FF93E0910E02F0910F0221
:101410001995FF91EF91BF91AF919F918F917F911E
:101420006F915F914F913F912F910F900BBE0F9055
:101430000FBE0F901F9018951F920F920FB60F922C
:1014400011240BB60F922F933F934F935F936F939B
:101450007F938F939F93AF93BF93EF93FF93E0910D
:101460000C02F0910D021995FF91EF91BF91AF9190
:101470009F918F917F916F915F914F913F912F91AC
:101480000F900BBE0F900FBE0F901F9018951F92DC
:101490000F920FB60F9211240BB60F922F933F931A
:1014A0004F935F936F937F938F939F93AF93BF936C
:1014B000EF93FF93E0910202F09103021995FF91DF
:1014C000EF91BF91AF919F918F917F916F915F91BC
:1014D0004F913F912F910F900BBE0F900FBE0F9029
:1014E0001F9018951F920F920FB60F9211240BB6F2
:1014F0000F922F933F934F935F936F937F938F93AD
:101500009F93AF93BF93EF93FF93E0910002F0910D
:1015100001021995FF91EF91BF91AF919F918F912A
:101520007F916F915F914F913F912F910F900BBEE3
:101530000F900FBE0F901F9018951F920F920FB62D
:101540000F9211240BB60F922F933F934F935F93FB
:101550006F937F938F939F93AF93BF93EF93FF937B
:10156000E0910A02F0910B021995FF91EF91BF9162
:10157000AF919F918F917F916F915F914F913F912B
:101580002F910F900BBE0F900FBE0F901F901895CC
:101590001F920F920FB60F9211240BB60F922F933A
:1015A0003F934F935F936F937F938F939F93AF93EB
:1015B000BF93EF93FF93E0910802F0910902199510
:1015C000FF91EF91BF91AF919F918F917F916F911B
:1015D0005F914F913F912F910F900BBE0F900FBED7
:1015E0000F901F9018951F920F920FB60F92112413
:1015F0000BB60F922F933F934F935F936F937F930D
:101600008F939F93AF93BF93EF93FF93E091060265
:10161000F09107021995FF91EF91BF91AF919F91C2
:101620008F917F916F915F914F913F912F910F908B
:101630000BBE0F900FBE0F901F9018951F920F9228
:101640000FB60F9211240BB60F922F933F934F9327
:101650005F936F937F938F939F93AF93BF93EF931A
:10166000FF93E0910402F09105021995FF91EF912B
:10167000BF91AF919F918F917F916F915F914F91AA
:101680003F912F910F900BBE0F900FBE0F901F90A8
:1016900018951F920F920FB60F9211240BB60F924E
:1016A0002F933F934F935F936F937F938F939F936A
:1016B000AF93BF93EF93FF938091B900887F8036FB
:1016C00009F44DC008F040C0883209F4A9C028F5DB
:1016D000803109F49DC0C8F4882309F4FBC0883028
:1016E00009F496C0FF91EF91BF91AF919F918F91B7
:1016F0007F916F915F914F913F912F910F900BBE12
:101700000F900FBE0F901F901895883109F488C074
:10171000803241F78093B80414C0803409F49DC02E
:1017200040F48033B9F38833E9F68093B80485EC4C
:10173000B0C0803509F485C0883509F496C0883476
:1017400089F60E94B606CECF883909F48CC038F5E8
:10175000883729F050F4883611F0803719F683E085
:101760008093BA0410927B0357C0883809F47BC079
:10177000803919F0803809F0B5CF80917B03803231
:1017800008F071C0E0917B0381E08E0F80937B03B2
:101790008091BB00F0E0E55AFC4F80833DC0803B68
:1017A00039F0E0F4803A09F479C0883A09F09ACF28
:1017B00084E08093BA0410925A0310925903E09186
:1017C0009004F091910419958091590381110FC0F3
:1017D00081E0809359031092390309C0803C09F4D9
:1017E000A6CF883C09F4A3CF883B09F07BCFE091DA
:1017F0005A0381E08E0F80935A03F0E0E75CFC4FC0
:1018000080818093BB0090915A038091590329C035
:10181000809195048093BB0085EC8093BC0062CFDF
:101820009091B7048091B604981758F5E091B704E9
:1018300081E08E0F8093B704F0E0EA56FB4F808181
:10184000E9CFE091B70481E08E0F8093B7048091D7
:10185000BB00F0E0EA56FB4F80839091B704809183
:10186000B6049817C8F285E8D8CFE091B70481E0B4
:101870008E0F8093B7048091BB00F0E0EA56FB4FD7
:1018800080838091B90481115CCF81E080939404BE
:1018900084EA8093BC001092BA0424CF85EC809334
:1018A000BC001092BA0480917B03803230F4E09146
:1018B0007B03F0E0E55AFC4F108260917B0370E0FF
:1018C000E0918E04F0918F048BE593E019951092CE
:1018D0007B0308CF1092B80434CF1092E704109223
:1018E000E60488EE93E0A0E0B0E08093E8049093F3
:1018F000E904A093EA04B093EB0424E132E03093CE
:10190000E5042093E40425EC30E03093F1042093C7
:10191000F00424EC30E03093F3042093F20420EC44
:1019200030E03093F5042093F40421EC30E0309360
:10193000F7042093F60422EC30E03093F90420936E
:10194000F80426EC30E03093FB042093FA04109264
:10195000FD041092FE041092FF04109200051092F4
:101960008405109283058093850590938605A09346
:101970008705B093880586E292E090938205809374
:10198000810588E68093D0058CE08093D10581E7BE
:101990008093D20598E49093D30586E08093D40594
:1019A00040E050E060E07AE34093D5055093D605DF
:1019B0006093D7057093D80540E050E06AE77DE377
:1019C0004093D9055093DA056093DB057093DC05ED
:1019D0004FEF5BEE6FEB7FE34093DD055093DE0549
:1019E0006093DF057093E0051092E1051092E20527
:1019F0001092E3051092E4051092E5051092E605B9
:101A00001092E7051092E8051092E9051092EA0598
:101A10001092EB051092EC051092ED051092EE0578
:101A20001092EF051092F0051092F1051092F20558
:101A30001092F3051092F4051092F5051092F60538
:101A40001092F7051092F8051092F9051092FA0518
:101A50001092FB051092FC051092FD051092FE05F8
:101A60001092FF05109200061092010610920206D5
:101A7000109203061092040681E080932F06909343
:101A8000CB058093CC0584E08093CD051092CF05E3
:101A90001092CE05E2E9F5E08AEA95E0148213821D
:101AA000158212821182108236968E179F07B1F727
:101AB0001092B6051092B9051092B5051092B405B2
:101AC0001092C6051092C9051092C5051092C40562
:101AD00080E680938F058093CA0580919D058823B9
:101AE000B1F08091A305811111C082E08093A3051C
:101AF0002DE835E03093A2052093A10580939E0543
:101B000084E080939F0583E08093A005089581E0A1
:101B100080939D058DE895E090939C0580939B05AF
:101B20008DE0809398058BE0809399058CE08093FD
:101B30009A05D7CFCF93DF93CDB7DEB7A8970FB66F
:101B4000F894DEBF0FBECDBF789484B5826084BDAB
:101B500084B5816084BD85B5826085BD85B58160B1
:101B600085BD80916E00816080936E00109281002F
:101B700080918100826080938100809181008160EA
:101B800080938100809180008160809380008091AB
:101B9000B10084608093B1008091B0008160809337
:101BA000B0008091910082608093910080919100BB
:101BB000816080939100809190008160809390007B
:101BC0008091A10082608093A1008091A10081603A
:101BD0008093A1008091A00081608093A0008091FB
:101BE0002101826080932101809121018160809395
:101BF00021018091200181608093200180917A00F1
:101C0000846080937A0080917A00826080937A0069
:101C100080917A00816080937A0080917A00806858
:101C200080937A001092C10089E893E090938D042C
:101C300080938C0488E893E09093870380938603D5
:101C4000FC01119224E0E838F207D9F726E0F22EE1
:101C5000F09285030E9444048CE08093B800E091E8
:101C6000F404F091F50482E08083E091F004F091B7
:101C7000F1041082E091F204F091F30480E180839A
:101C80001092FC04E091F804F091F904F082E091E4
:101C9000F604F091F704808180618083E091F6047E
:101CA000F091F704808188608083E091F604F091E0
:101CB000F704808180688083E091F604F091F70456
:101CC00080818F7D808368E873E180E090E00E94EE
:101CD000CB031F9281E08F931F921F9289E492E0C1
:101CE0009F938F93FF920E94230981E895E0909340
:101CF00031068093300665E78091D0050E940B087D
:101D00000FB6F894DEBF0FBECDBF9091D2058913F8
:101D10008DC60E94CD0860E08091D1050E940B081D
:101D20009091D305891393C640E06AE08091D10574
:101D30000E949C086AE070E080E090E00E94CB0383
:101D40004FE06AE08091D1050E949C086AE070E053
:101D500080E090E00E94CB038E010F5F1F4F98013F
:101D600043E060E18091D1050E944D08698160588F
:101D7000770B072E000C880B990B0E94111620E0A0
:101D800030E040E85BE30E949D1620E030E040E850
:101D90005FE30E9431156093E1057093E205809343
:101DA000E3059093E4056A816058770B072E000CD9
:101DB000880B990B0E94111620E030E040E85BE3AD
:101DC0000E949D1620E030E040E85FE30E9431155C
:101DD0006093E5057093E6058093E7059093E80529
:101DE0006B816058770B072E000C880B990B0E94B3
:101DF000111620E030E040E85BE30E949D1620E0F1
:101E000030E040E85FE30E9431156093E90570938C
:101E1000EA058093EB059093EC0540E06AE0809141
:101E2000D1050E949C086AE070E080E090E00E948A
:101E3000CB034091D40540616AE08091D1050E94B6
:101E40009C086AE070E080E090E00E94CB038DE6A1
:101E500092E09F938F93FF920E94230940E86BE6E4
:101E60008091D0050E949C0864E670E080E090E0DC
:101E70000E94CB0341E06BE68091D0050E949C0854
:101E800040E06CE68091D0050E949C0868EC70E010
:101E900080E090E00E94CB0340E068E38091D005B1
:101EA0000E949C0840E063E28091D0050E949C085B
:101EB00040E06BE68091D0050E949C0840E064E21F
:101EC0008091D0050E949C0840E06AE68091D00590
:101ED0000E949C084CE06AE68091D0050E949C0814
:101EE0006FE070E080E090E00E94CB0341E06AE1A7
:101EF0008091D0050E949C0840E069E18091D00566
:101F00000E949C0840E06BE18091D0050E949C08F3
:101F100040E06CE18091D0050E949C0840E46AE6B4
:101F20008091D0050E949C0848E763E28091D0052B
:101F30000E949C0868E270E080E090E00E94CB0381
:101F400040E063E28091D0050E949C08980142E045
:101F500062E78091D0050E944D0889819A81982777
:101F6000892798276CE070E00E940A171B010F90E8
:101F70000F900F901B8A1C8A1D8A1E8A812C912C1F
:101F80005401412C512C32011F86188A198A1A8A51
:101F90001B8E1C8E1D8E1E8E1F8A188E198E1A8EF9
:101FA000D12CC12CF02E012F1091D0052C143D0402
:101FB00009F479C02F2D302F4CE064E7812F0E9467
:101FC0004D0889819A81982789279827092E000C26
:101FD000AA0BBB0B480E591E6A1E7B1E8B819C816F
:101FE000982789279827092E000CAA0BBB0B880E6F
:101FF000991EAA1EBB1E8D819E819827892798272E
:10200000092E000CAA0BBB0B2B893C894D895E89DC
:10201000280F391F4A1F5B1F2B8B3C8B4D8B5E8B10
:102020008F819885982789279827092E000CAA0B5D
:10203000BB0B2F89388D498D5A8D280F391F4A1FA8
:102040005B1F2F8B388F498F5A8F89859A859827E8
:1020500089279827092E000CAA0BBB0B2B8D3C8DD2
:102060004D8D5E8D280F391F4A1F5B1F2B8F3C8FB4
:102070004D8F5E8F8B859C85982789279827092E01
:10208000000CAA0BBB0B2F85388949895A89280F68
:10209000391F4A1F5B1F2F87388B498B5A8B3FEFA5
:1020A000C31AD30A81CFF12CE12CC301B201A701DD
:1020B00091010E94401729A33AA34BA35CA3C50139
:1020C000B401A70191010E9440172DA33EA34FA385
:1020D00058A76B897C898D899E89A70191010E94EF
:1020E000401749015A016F89788D898D9A8DA70112
:1020F00091010E94401729013A016B8D7C8D8D8DD5
:102100009E8DA70191010E9440172B8B3C8B4D8B1C
:102110005E8B6F85788989899A89A70191010E94D0
:1021200040172F8B388F498F5A8F181419041A04AF
:102130001B040CF071C4D501C4019054A109B1096C
:102140008F87988BA98BBA8B84E0C82ED12CE12C79
:10215000F12CC301B201A70196010E9440175095CE
:102160004095309521953F4F4F4F5F4FBB2757FD0F
:10217000BA95A52F942F832F8B8F9C8FAD8FBE8FF9
:1021800089832A836B897C898D899E89A701960121
:102190000E94401750954095309521953F4F4F4FE5
:1021A0005F4F3B832C836F89788D898D9A8DA70132
:1021B00096010E94401750954095309521953F4FCC
:1021C0004F4F5F4F3D832E834B8D63E1812F0E94E4
:1021D0009C084A8164E18091D0050E949C084B8153
:1021E00065E18091D0050E949C084C8166E1809158
:1021F000D0050E949C084D8167E18091D0050E9426
:102200009C084E8168E18091D0050E949C08C30122
:10221000B2010E94111620E030E043E053E40E9436
:102220009D156093ED057093EE058093EF059093F7
:10223000F0056B897C898D899E890E94111620E0AA
:1022400030E043E053E40E949D156093F1057093E4
:10225000F2058093F3059093F4056F89788D898D4D
:102260009A8D0E94111620E030E043E053E40E9472
:102270009D156093F5057093F6058093F70590938F
:10228000F80569A17AA18BA19CA10E94111620E0FA
:1022900030E040E858E30E949D166093F905709382
:1022A000FA058093FB059093FC056DA17EA18FA19B
:1022B00098A50E94111620E030E040E858E30E9403
:1022C0009D166093FD057093FE058093FF05909326
:1022D00000066F85788989899A890E94111620E005
:1022E00030E040E858E30E949D1660930106709329
:1022F0000206809303069093040664E670E080E093
:1023000090E00E94CB030E94CD0868EE73E080E06D
:1023100090E00E94CB0388ED92E09F938F9316E0AC
:102320001F930E9423090E94440489EE92E09F9328
:102330008F931F930E94230981E895E090938E0567
:1023400080938D050E9444040E94440460E080E074
:102350000E94FA0580E496E09093910580939005A1
:102360008091CA050E94800160E081E895E00E94AA
:10237000C30581E895E00E94F70541E06091CA0538
:1023800081E895E00E94EE0681E895E00E947C05D8
:10239000182F682F6F76606180E00E94FA0563E075
:1023A0008EEF0E94FA05612F80E00E94FA0565E039
:1023B00070E080E090E00E94CB03612F616A80E0D2
:1023C0000E94FA050F900F900F900F900F900F90B2
:1023D00016E08091CA050E948001612F81E895E096
:1023E0000E94C3050E94F2050E94F2050E94F205B8
:1023F0000E94F20581E895E00E94F7051C5F163403
:1024000041F710928B0410928A0410928904109262
:10241000880483E00E948A0186E10E948A0182E0AA
:102420000E948A0184E00E948A0184E396E09093EE
:1024300003028093020280916A00837F846080930C
:102440006A00ED9A85E196E0909301028093000284
:1024500080916A008C7F816080936A00EC9A84E0AE
:1024600093E09F938F9386E08F930E9423090F90B0
:102470000F900F906AE38091D0050E940B0880FFB7
:1024800054C19E012F5F3F4F4EE06BE38091D0051A
:102490000E944D0869817A817627672776278B808D
:1024A0009C80982489249824AD80BE80BA24AB24D3
:1024B000BA24C984DA84DC24CD24DC24EB84FC84B3
:1024C000FE24EF24FE240D851E85102701271027EA
:1024D0004090D5055090D6056090D7057090D805EE
:1024E000072E000C880B990B0E941116A301920174
:1024F0000E949D162091F9053091FA054091FB0547
:102500005091FC050E94301560930B0670930C06E9
:1025100080930D0690930E06B401990C880B990BCD
:102520000E941116A30192010E949D162091FD05A3
:102530003091FE054091FF05509100060E94301534
:1025400060930F0670931006809311069093120605
:10255000B501BB0C880B990B0E941116A3019201C7
:102560000E949D16209101063091020640910306BB
:10257000509104060E943015609313067093140660
:1025800080931506909316068090D9059090DA05F1
:10259000A090DB05B090DC05B601DD0C880B990B33
:1025A0000E941116A50194010E949D162091ED052F
:1025B0003091EE054091EF055091F0050E943015E5
:1025C00060931706709318068093190690931A0665
:1025D000B701FF0C880B990B0E941116A5019401FD
:1025E0000E949D162091F1053091F2054091F3056E
:1025F0005091F4050E94301560931B0670931C06E1
:1026000080931D0690931E06B801110F880B990B3D
:102610000E941116A50194010E949D162091F505B6
:102620003091F6054091F7055091F8050E9430155C
:1026300060931F06709320068093210690932206D4
:1026400062E08091D1050E940B0880FF02C29E01CA
:102650002F5F3F4F47E063E08091D1050E944D0816
:102660008F8183FDF6C169817A81AB80BC800D8149
:102670001E81C090DD05D090DE05E090DF05F09072
:10268000E005072E000C880B990B0E941116A7017C
:1026900096010E949D162091E1053091E20540913E
:1026A000E3055091E4050E949D1660932306709304
:1026B00024068093250690932606B501BB0C880B53
:1026C000990B0E941116A70196010E949D16209158
:1026D000E5053091E6054091E7055091E8050E9437
:1026E0009D16609327067093280680932906909381
:1026F0002A06B801110F880B990B0E941116A70129
:1027000096010E949D162091E9053091EA054091BD
:10271000EB055091EC050E949D1660932B0670937B
:102720002C0680932D0690932E0680912F06811102
:102730002CC09E012F5F3F4F42E061E48091D005A5
:102740000E944D0869817A817627672776277093E2
:10275000060660930506072E000C880B990B0E9455
:1027600011162CE53FEE46EA53E40E949D1520E049
:1027700030E048EA51E40E943115609307067093F7
:1027800008068093090690930A0600918C04109124
:102790008D04D8011C928091170690911806209103
:1027A000190630911A0611963C93119712962C93A4
:1027B000129713969C93139714968C931497809169
:1027C0001B0690911C0620911D0630911E06159641
:1027D0003C93159716962C93169717969C931797DC
:1027E00018968C93189780911F069091200620913F
:1027F00021063091220619963C9319971A962C932C
:102800001A971B969C931B971C968C931C978091F0
:102810000B0690910C0620910D0630910E061D9628
:102820003C931D971E962C931E971F969C931F9763
:1028300050968C93509780910F069091100620919E
:1028400011063091120651963C93519752962C9353
:10285000529753969C93539754968C935497809188
:102860001306909114062091150630911606559680
:102870003C93559756962C93569757969C935797FB
:1028800058968C9358978091230690912406209116
:1028900025063091260659963C9359975A962C93C3
:1028A0005A975B969C935B975C968C935C97809110
:1028B0002706909128062091290630912A065D96D8
:1028C0003C935D975E962C935E975F969C935F9783
:1028D00090968C93909780912B0690912C06209146
:1028E0002D0630912E0691963C93919792962C93BB
:1028F000929793969C93939794968C93E090CE05A1
:10290000F090CF05B3E8EB2AB1EBFB2A8091CB0521
:102910000E94800161E081E895E00E94C3056F2D6F
:1029200081E895E00E94C3056E2D81E895E00E9444
:10293000C30581E895E00E94F7056091CC0570E041
:1029400090E080E00E94CB03F090CB058F2D0E9499
:10295000800160E081E895E00E94C30581E895E090
:102960000E94F70542E06F2D81E895E00E94EE0697
:1029700081E895E00E947C05F82E81E895E00E94B0
:102980007C059091CD05F8A21F8E6F8D78A1682BE4
:10299000092E02C0769567950A94E2F7992329F0EB
:1029A0006115E8E07E0708F0706F90E080E00E941B
:1029B0000F1620E030E040E450E40E949D16D8015C
:1029C00095969C93959796968C93969797967C93CD
:1029D000979798966C93989780918A0490918B041E
:1029E00099969C9399979A968C939A97809188043C
:1029F000909189049B969C939B979C968C938DE2D7
:102A000090E00E9453066AE070E080E090E00E944F
:102A1000CB030E94B7022ECDA5019401305C4F4F2D
:102A20005F4F2F87388B498B5A8B8ECB80E01F925C
:102A30008F938FEA92E09F938F9383E08F930E940E
:102A400023090F900F900F900F900F9064CC82E0AD
:102A5000EECF10E000E0B12CA12C70E060E009CED8
:102A60005058BB27AA270E9448150C9463160E9451
:102A7000551638F00E945C1620F039F49F3F19F487
:102A800026F40C9452160EF4E095E7FB0C944C16C9
:102A9000E92F0E94741658F3BA1762077307840768
:102AA000950720F079F4A6F50C9496160EF4E095AF
:102AB0000B2EBA2FA02D0B01B90190010C01CA01F8
:102AC000A0011124FF27591B99F0593F50F4503EA3
:102AD00068F11A16F040A22F232F342F4427585F95
:102AE000F3CF469537952795A795F0405395C9F7AD
:102AF0007EF41F16BA0B620B730B840BBAF0915065
:102B0000A1F0FF0FBB1F661F771F881FC2F70EC003
:102B1000BA0F621F731F841F48F4879577956795D6
:102B2000B795F7959E3F08F0B0CF9395880F08F0C2
:102B30009927EE0F9795879508950E94B1150C94EB
:102B400063160E945C1658F00E94551640F029F456
:102B50005F3F29F00C944C1651110C9497160C946D
:102B600052160E94741668F39923B1F3552391F31A
:102B7000951B550BBB27AA2762177307840738F0EC
:102B80009F5F5F4F220F331F441FAA1FA9F335D049
:102B90000E2E3AF0E0E832D091505040E695001CFD
:102BA000CAF72BD0FE2F29D0660F771F881FBB1FB7
:102BB000261737074807AB07B0E809F0BB0B802D95
:102BC000BF01FF2793585F4F3AF09E3F510578F0C1
:102BD0000C944C160C9497165F3FE4F3983ED4F394
:102BE000869577956795B795F7959F5FC9F7880F95
:102BF000911D9695879597F90895E1E0660F771FE7
:102C0000881FBB1F621773078407BA0720F0621B77
:102C1000730B840BBA0BEE1F88F7E0950895E894C8
:102C200009C097FB3EF490958095709561957F4F14
:102C30008F4F9F4F9923A9F0F92F96E9BB279395C2
:102C4000F695879577956795B795F111F8CFFAF4D2
:102C5000BB0F11F460FF1BC06F5F7F4F8F4F9F4F03
:102C600016C0882311F096E911C0772321F09EE861
:102C7000872F762F05C0662371F096E8862F70E0C7
:102C800060E02AF09A95660F771F881FDAF7880FA1
:102C90009695879597F9089597F99F6780E870E072
:102CA00060E008959FEF80EC089500240A941616C2
:102CB000170618060906089500240A94121613062A
:102CC000140605060895092E0394000C11F48823B8
:102CD00052F0BB0F40F4BF2B11F460FF04C06F5FD4
:102CE0007F4F8F4F9F4F089557FD9058440F551FAA
:102CF00059F05F3F71F04795880F97FB991F61F07E
:102D00009F3F79F087950895121613061406551FF4
:102D1000F2CF4695F1DF08C0161617061806991F60
:102D2000F1CF86957105610508940895E894BB2755
:102D300066277727CB0197F908950E94B0160C9467
:102D400063160E94551638F00E945C1620F09523F9
:102D500011F00C944C160C94521611240C949716E6
:102D60000E94741670F3959FC1F3950F50E0551FA4
:102D7000629FF001729FBB27F00DB11D639FAA27D0
:102D8000F00DB11DAA1F649F6627B00DA11D661F1F
:102D9000829F2227B00DA11D621F739FB00DA11D40
:102DA000621F839FA00D611D221F749F3327A00DFA
:102DB000611D231F849F600D211D822F762F6A2F96
:102DC00011249F5750409AF0F1F088234AF0EE0FFB
:102DD000FF1FBB1F661F771F881F91505040A9F728
:102DE0009E3F510580F00C944C160C9497165F3F53
:102DF000E4F3983ED4F3869577956795B795F79564
:102E0000E7959F5FC1F7FE2B880F911D96958795DB
:102E100097F90895AA1BBB1B51E107C0AA1FBB1F4E
:102E2000A617B70710F0A61BB70B881F991F5A9556
:102E3000A9F780959095BC01CD010895A1E21A2EC5
:102E4000AA1BBB1BFD010DC0AA1FBB1FEE1FFF1F4E
:102E5000A217B307E407F50720F0A21BB30BE40B9E
:102E6000F50B661F771F881F991F1A9469F76095E5
:102E70007095809590959B01AC01BD01CF0108959F
:102E8000052E97FB1EF400940E94571757FD07D09C
:102E90000E941E1707FC03D04EF40C945717509550
:102EA0004095309521953F4F4F4F5F4F0895909536
:102EB0008095709561957F4F8F4F9F4F0895EE0FCE
:102EC000FF1F881F8BBF0790F691E02D19940F9379
:102ED0001F93CF93DF93CDB7DEB72E970FB6F8943D
:102EE000DEBF0FBECDBF8C01FA0186E08C831A8352
:102EF000098377FF02C060E070E8615071097E834A
:102F00006D83A901BF01CE0101960E94A0174D81DA
:102F10005E8157FD0AC02F813885421753070CF494
:102F20009A01020F131FF80110822E960FB6F89423
:102F3000DEBF0FBECDBFDF91CF911F910F910895DE
:102F40002F923F924F925F926F927F928F929F92B9
:102F5000AF92BF92CF92DF92EF92FF920F931F93A7
:102F6000CF93DF9300D000D000D01F921F92CDB737
:102F7000DEB77C013B018A01FC0117821682838146
:102F800081FFDDC1CE0101965C01F7019381F30160
:102F900093FD859193FF81913F01882309F453C1EB
:102FA000853239F493FD859193FF81913F018532FC
:102FB00029F4B70190E00E94B819E7CF912C212C99
:102FC000312CFFE1F31538F08B3211F190F480329F
:102FD00009F1833229F137FC3CC020ED280F2A305B
:102FE00050F536FE20C08AE0989E200D1124922EC6
:102FF00006C08D3291F0803371F7689430F8F30198
:1030000093FD859193FF81913F018111DACF21C01A
:10301000689431F8689432F8F2CF689433F8EFCFBF
:10302000689434F8ECCFEAE02E9E200D1124222E75
:10303000689435F8E4CF8E3229F436FC04C16894E4
:1030400036F8DDCF8C3619F4689437F8D8CF883647
:10305000B1F2982F9F7D95549330E0F08336A1F123
:103060008337C1F1833509F063C02801F2E04F0EC8
:10307000511CF801C080D180692D70E036FC02C07F
:103080006FEF7FEFC6010E94A2194C01689437F8D8
:1030900082010AC00C5F1F4FFFE3F98388248394E9
:1030A000912C6501E89437F833FE2DC0522C811421
:1030B000910471F5552009F468CFB70180E290E0E2
:1030C0000E94B8195A94F6CFF801808189830E5F67
:1030D0001F4FE4CF2801F2E04F0E511CF801C080D1
:1030E000D180692D70E036FC02C06FEF7FEFC60122
:1030F0000E94AD194C018201D5CFB70180E290E06A
:103100000E94B8192A942814190409F0B0F7CECFF8
:10311000F60137FC859137FE81916F01B70190E090
:103120000E94B81951105A94F1E08F1A9108BFCF3C
:10313000843619F0893609F077C0F80137FE6BC084
:1031400060817181828193810C5F1F4FF32DFF7627
:103150003F2E97FF09C090958095709561957F4FA0
:103160008F4F9F4F689437F82AE030E0A5010E9406
:10317000E819C82ECA188C2C432C36FE0CC0E894D3
:1031800040F8C91440F434FE05C032FC03C0F32DEE
:10319000FE7E4F2E892C44FEAAC0FE01EC0DF11DCF
:1031A0008081803309F09CC0242D297E422E842DFD
:1031B0008870582E43FCAAC040FEA4C09C2C8214E8
:1031C00018F42C0C922C981844FEA6C0B70180E38A
:1031D00090E00E94B81942FE09C088E790E041FEE5
:1031E00002C088E590E0B7010E94B819C91408F43C
:1031F0009FC0CA94D12C9FEFC91AD90ACA0CDB1CF4
:10320000F60182916F01B70190E00E94B819AC14E9
:10321000BD04B1F74FCF60817181072E000C880B80
:10322000990B0E5F1F4F92CFD32CE894D4F82AE06D
:1032300030E08537E1F1232D297FD22E8F36A9F199
:10324000F0F4883551F1F701868197812B960FB6FE
:10325000F894DEBF0FBECDBFDF91CF911F910F91CC
:10326000FF90EF90DF90CF90BF90AF909F908F90A6
:103270007F906F905F904F903F902F900895803790
:1032800049F0883701F7D4FE02C06894D2F820E1F3
:1032900030E00DC06894D4F8F6CF34FE03C0822F1E
:1032A0008660D82E20E132E002C028E030E0F8014C
:1032B000D7FE0FC060817181828193810C5F1F4FA7
:1032C000A5010E94E819C82ECA183D2CE89437F8C9
:1032D00052CF6081718190E080E00E5F1F4FF0CF90
:1032E00042FC02C0839463CF8394839460CF842D87
:1032F000867809F45CCFF6CFB70180E290E00E94B7
:10330000B81983948214C0F3512C5ECF522C5818F4
:10331000821408F459CFF8CF842D867809F466CF4B
:103320008BE241FE80E247FC8DE2B70190E05CCF8A
:10333000B70180E390E00E94B8199A9457CF8FEFBD
:103340009FEF84CFFC010590615070400110D8F7C9
:10335000809590958E0F9F1F0895FC0161507040DD
:1033600001900110D8F7809590958E0F9F1F0895BA
:103370000F931F93CF93DF93182F092FEB018B81AE
:1033800081FD09C01FEF0FEF812F902FDF91CF91AB
:103390001F910F91089582FF14C02E813F818C816F
:1033A0009D81281739073CF4E881F981CF01019606
:1033B0009983888310838E819F8101969F838E835A
:1033C000E3CFE885F985812F1995892BA1F3DACF11
:1033D000FA01AA27283051F1203181F1E8946F9346
:1033E0006E7F6E5F7F4F8F4F9F4FAF4FB1E03ED0EC
:1033F000B4E03CD0670F781F891F9A1FA11D680F8A
:10340000791F8A1F911DA11D6A0F711D811D911DBC
:10341000A11D20D009F468943F912AE0269F112431
:103420003019305D3193DEF6CF010895462F477095
:10343000405D4193B3E00FD0C9F7F6CF462F4F70F0
:10344000405D4A3318F0495D31FD4052419302D04E
:10345000A9F7EACFB4E0A6959795879577956795F4
:10346000BA95C9F700976105710508959B01AC01F4
:103470000A2E06945795479537952795BA95C9F71B
:10348000620F731F841F951FA01D0895F894FFCF2E
:10349000FE03FE03FE03FE03FE03FE03FE03FE0324
:1034A000000000004A02B401E10197021202F0019B
:1034B000040200000000C305960512066C058F0586
:1034C0007C056D05493243204552524F5220434FEF
:1034D0004445203A20000D0A00496E697420737932
:1034E0007374656D2E204669726D77617265207602
:1034F000657273696F6E2025642E256400494D55F1
:1035000020697320696E697469616C697A65642EDB
:103510002043616C6962726174696E6720616363E4
:10352000656C202B206779726F2E20446F6E74209B
:103530006D6F76652074686520726F626F740043EA
:10354000616E6E6F7420696E697469616C697A6509
:1035500020494D55206465766963652C207374613C
:103560007475733A202564007374617274696E67B0
:103570002061647331313135007374617274696E26
:1035800067206D6F746F7220636F6E7374726F6CEF
:103590006C65720053797374656D20696E69746926
:0835A000616C697A65640000AA
:00000001FF
